:060000000A128A1110280B
:10000800FE00030EF4000408F5000A08F6007F0855
:10001800F7000A128A11E4290A128A111328F80132
:10002800F901FA0183120313B901BA01BB01BC013A
:1000380083010A128A1120280A128A114A220A12F6
:100048008A115C3083120313A0008030A1000A12C9
:100058008A1142230A128A111C3083120313A0004A
:100068008030A1000A128A1142230A128A114830EC
:1000780083120313A0008030A1000A128A114223C0
:100088000A128A11831203139F184B284C285628EA
:10009800023083120313B700B70B502800008312F5
:1000A80003139F1461303B06031D5B285C28D72887
:1000B800BB010130A0008030A1000A128A1142233E
:1000C8000A128A11823083120313B800DD30B70098
:1000D800B70B6C28B80B6C28831203133A08B200CC
:1000E8003908B1000A30B3000030B4003C300A12BD
:1000F8008A111C230A128A11823083120313B80052
:10010800DD30B700B70B8628B80B86283C30831241
:100118000313A0000030A1000A128A1142230A1218
:100128008A11193083120313A0008030A1000A122B
:100138008A1142230A128A11823083120313B800EB
:10014800DD30B700B70BA628B80BA62819308312E4
:100158000313A0008030A1000A128A1142230A1258
:100168008A115C3083120313A0008030A1000A12A8
:100178008A1142230A128A111C3083120313A00029
:100188008030A1000A128A1142230A128A114830CB
:1001980083120313A0008030A1000A128A1142239F
:1001A8000A128A11462862303B06031DDC28DD2826
:1001B8004628BB010130F8000030F9003430A000B7
:1001C8008030A1000A128A1142230A128A11462895
:0601D8000A128A11102832
:10020000FF1B0A2983137F1883170008840A031928
:10021000FF0A080001308A000408840A82070034BB
:10022000563461346C346F34723420346434653441
:100230006C34203470346F34743465346E34633409
:1002400069346F346D346534743472346F343A34D5
:1002500020340D34003461342E3420344C34653471
:1002600065347234203450346F34743465346E34F1
:10027000633469346F346D346534743472346F347C
:1002800020340D34003443346134723461346334C7
:10029000743465347234203465346E34203441341F
:1002A00053344334493449343A34203400346234CA
:1002B0002E34203445346E347634693461347234EB
:1002C00020344134533443344934493420340D34D8
:1002D00000340D3420344D3445344E3455342034FC
:1002E0000D34003483120313B0002908AE0028082F
:1002F000AD002B08A1002A08A0002E08A3002D089D
:10030000A2000A128A119A220A128A118312031376
:100310002108AE002008AD000130AC002C08B00769
:100320002D082E04031D952996297929300884006B
:10033000831380010130B0022B08A1002A08A0001D
:100340002908A3002808A2000A128A11E0220A1232
:100350008A11831203132008AC002C08AF002B086D
:10036000A1002A08A0002908A3002808A2000A1258
:100370008A119A220A128A11831203132108A900F2
:100380002008A8000A302F02031CC729C829CC293D
:100390000730AC002C08AF073030AC002C08AF079A
:1003A0002F08AC00300884002C0883138000013033
:1003B000B00228082904031DDE29DF299C29013009
:1003C000AC002C08B0070800831203130C1FE929A6
:1003D000EA29FB291F0CF200720C0F39003A031DA9
:1003E000F229F329FA291E08F200F3017208B90074
:1003F0007308BA000C138C1EFE29FF293F2A7808C7
:100400007904031D042A052A0B2A1A08F20072082F
:10041000BB009A013F2A78037904031D102A112A90
:100420003F2AF801F9011A08F2007208FA007A0866
:1004300099009A011930F0008030F1000A128A11F7
:1004400068230A128A115A30F0008030F1000A1233
:100450008A1168230A128A111C30F0008030F100E2
:100460000A128A1168230A128A114830F00080307B
:10047000F1000A128A1168230A128A113F2A7708AA
:10048000FF0076088A0075088400740E8300FE0E53
:100490007E0E0900013083160317880089010130A0
:1004A00083160313850086018312031385018601D9
:1004B000831603130F088F3940388F000F1418125A
:1004C0001815831603178715831603139A0119301D
:1004D00099008312031398171813831603139816A1
:1004E0008312031318168B170B17831603138C161E
:1004F000831203130C13831603130C1783120313B5
:100500001F083F3940389F00831603131F129F12A4
:10051000C330831203139F05831603139F138312A3
:1005200003131F14193083120313A000A00B962A83
:10053000992A080083120313A501A60120082104AB
:100540000319A32AA42ADB2AA701A70AB22A013089
:100550000310A00DA10DFF3E031DA82A0130A40029
:100560002408A707A11FB52AB62AA72A013003101D
:10057000A50DA60DFF3E031DB72A21082302031D6A
:10058000C32A20082202031CC62AC72ACE2A200812
:10059000A2022108031CA303A302251401300310A7
:1005A000A10CA00CFF3E031DCF2A0130A702031DA2
:1005B000DA2ADB2AB62A2608A1002508A0000800AE
:1005C00083120313200821040319E72AE82A172BB2
:1005D000A501A50AF62A01300310A00DA10DFF3ECA
:1005E000031DEC2A0130A4002408A507A11FF92A45
:1005F000FA2AEB2A21082302031D002B20082202DD
:10060000031C032B042B0A2B2008A2022108031C25
:10061000A303A30201300310A10CA00CFF3E031D95
:100620000B2B0130A502031D162B172BFA2A2308CA
:10063000A1002208A000080083120313B600B21F15
:10064000222B232B332B2D30B500360884003508A0
:10065000831380000130B5003508B607B109B2092F
:10066000B10A0319B20A3208A9003108A8003408F7
:10067000AB003308AA0036080A128A1172210A1246
:100680008A110800572B0C1E462B472B432B2108A1
:10069000FF00200884000A128A1100210A128A1120
:1006A00099000130A0070318A10A0030A1078312A6
:1006B00003132108FF00200884000A128A11002178
:1006C0000A128A11003A031D662B672B432B080080
:1006D0007D2B0C1E6C2B6D2B692B7108FF00700895
:1006E00084000A128A1100210A128A11990001302D
:1006F000F0070318F10A0030F107710883120313A1
:10070000FF00700884000A128A1100210A128A115F
:0C071000003A031D8C2B8D2B692B080078
:08400000FF3FFF3FFF3FFF3FC0
:04400E00D420FF3F7C
:00000001FF
